{
  "contractName": "Cotizaciones",
  "abi": [
    {
      "constant": true,
      "inputs": [
        {
          "name": "",
          "type": "uint256"
        }
      ],
      "name": "todasCotizaciones",
      "outputs": [
        {
          "name": "cantidad",
          "type": "uint256"
        },
        {
          "name": "mes",
          "type": "string"
        },
        {
          "name": "ano",
          "type": "uint256"
        }
      ],
      "payable": false,
      "stateMutability": "view",
      "type": "function",
      "signature": "0x08b0980e"
    },
    {
      "constant": true,
      "inputs": [],
      "name": "administracion",
      "outputs": [
        {
          "name": "",
          "type": "address"
        }
      ],
      "payable": false,
      "stateMutability": "view",
      "type": "function",
      "signature": "0x75b9259e"
    },
    {
      "constant": true,
      "inputs": [
        {
          "name": "",
          "type": "address"
        },
        {
          "name": "",
          "type": "uint256"
        }
      ],
      "name": "empleados",
      "outputs": [
        {
          "name": "",
          "type": "address"
        }
      ],
      "payable": false,
      "stateMutability": "view",
      "type": "function",
      "signature": "0xa411be0e"
    },
    {
      "constant": true,
      "inputs": [
        {
          "name": "",
          "type": "address"
        },
        {
          "name": "",
          "type": "uint256"
        }
      ],
      "name": "empresas",
      "outputs": [
        {
          "name": "",
          "type": "address"
        }
      ],
      "payable": false,
      "stateMutability": "view",
      "type": "function",
      "signature": "0xe02ada2f"
    },
    {
      "constant": true,
      "inputs": [
        {
          "name": "",
          "type": "address"
        },
        {
          "name": "",
          "type": "address"
        },
        {
          "name": "",
          "type": "uint256"
        }
      ],
      "name": "cotizaciones",
      "outputs": [
        {
          "name": "cantidad",
          "type": "uint256"
        },
        {
          "name": "mes",
          "type": "string"
        },
        {
          "name": "ano",
          "type": "uint256"
        }
      ],
      "payable": false,
      "stateMutability": "view",
      "type": "function",
      "signature": "0xf02805cc"
    },
    {
      "inputs": [
        {
          "name": "_administracion",
          "type": "address"
        }
      ],
      "payable": false,
      "stateMutability": "nonpayable",
      "type": "constructor",
      "signature": "constructor"
    },
    {
      "constant": false,
      "inputs": [
        {
          "name": "empresa",
          "type": "address"
        },
        {
          "name": "empleado",
          "type": "address"
        }
      ],
      "name": "contrata",
      "outputs": [],
      "payable": false,
      "stateMutability": "nonpayable",
      "type": "function",
      "signature": "0x93333b94"
    },
    {
      "constant": true,
      "inputs": [
        {
          "name": "empresa",
          "type": "address"
        }
      ],
      "name": "empleadosLength",
      "outputs": [
        {
          "name": "",
          "type": "uint256"
        }
      ],
      "payable": false,
      "stateMutability": "view",
      "type": "function",
      "signature": "0x9d1a5c82"
    },
    {
      "constant": true,
      "inputs": [
        {
          "name": "empleado",
          "type": "address"
        }
      ],
      "name": "empresasLength",
      "outputs": [
        {
          "name": "",
          "type": "uint256"
        }
      ],
      "payable": false,
      "stateMutability": "view",
      "type": "function",
      "signature": "0x29aa1ef5"
    },
    {
      "constant": true,
      "inputs": [],
      "name": "misEmpleadosLength",
      "outputs": [
        {
          "name": "",
          "type": "uint256"
        }
      ],
      "payable": false,
      "stateMutability": "view",
      "type": "function",
      "signature": "0x3ec450e1"
    },
    {
      "constant": true,
      "inputs": [],
      "name": "misEmpresasLength",
      "outputs": [
        {
          "name": "",
          "type": "uint256"
        }
      ],
      "payable": false,
      "stateMutability": "view",
      "type": "function",
      "signature": "0xa75bc734"
    },
    {
      "constant": true,
      "inputs": [],
      "name": "empleado",
      "outputs": [
        {
          "name": "",
          "type": "uint256"
        }
      ],
      "payable": false,
      "stateMutability": "view",
      "type": "function",
      "signature": "0x5880a530"
    },
    {
      "constant": false,
      "inputs": [
        {
          "name": "usuario",
          "type": "address"
        },
        {
          "name": "empresa",
          "type": "address"
        },
        {
          "name": "_cantidad",
          "type": "uint256"
        },
        {
          "name": "_mes",
          "type": "string"
        },
        {
          "name": "_ano",
          "type": "uint256"
        }
      ],
      "name": "creaCotizacion",
      "outputs": [],
      "payable": false,
      "stateMutability": "nonpayable",
      "type": "function",
      "signature": "0x9e599328"
    },
    {
      "constant": true,
      "inputs": [],
      "name": "cotizacionesLength",
      "outputs": [
        {
          "name": "",
          "type": "uint256"
        }
      ],
      "payable": false,
      "stateMutability": "view",
      "type": "function",
      "signature": "0xf322418d"
    },
    {
      "constant": true,
      "inputs": [
        {
          "name": "_usuario",
          "type": "address"
        },
        {
          "name": "_empresa",
          "type": "address"
        }
      ],
      "name": "numeroCotizaciones",
      "outputs": [
        {
          "name": "",
          "type": "uint256"
        }
      ],
      "payable": false,
      "stateMutability": "view",
      "type": "function",
      "signature": "0x89361baa"
    },
    {
      "constant": true,
      "inputs": [
        {
          "name": "_usuario",
          "type": "address"
        }
      ],
      "name": "numeroCotizacionesEmpresa",
      "outputs": [
        {
          "name": "",
          "type": "uint256"
        }
      ],
      "payable": false,
      "stateMutability": "view",
      "type": "function",
      "signature": "0x231fa8f6"
    },
    {
      "constant": true,
      "inputs": [
        {
          "name": "_empresa",
          "type": "address"
        }
      ],
      "name": "numeroCotizacionesUsuario",
      "outputs": [
        {
          "name": "",
          "type": "uint256"
        }
      ],
      "payable": false,
      "stateMutability": "view",
      "type": "function",
      "signature": "0x53221146"
    },
    {
      "constant": true,
      "inputs": [
        {
          "name": "usuario",
          "type": "address"
        },
        {
          "name": "num",
          "type": "uint256"
        }
      ],
      "name": "misCotizaciones",
      "outputs": [
        {
          "name": "_cantidad",
          "type": "uint256"
        },
        {
          "name": "_mes",
          "type": "string"
        },
        {
          "name": "_ano",
          "type": "uint256"
        }
      ],
      "payable": false,
      "stateMutability": "view",
      "type": "function",
      "signature": "0xb820bed5"
    }
  ],
  "bytecode": "0x608060405234801561001057600080fd5b506040516020806115048339810180604052602081101561003057600080fd5b8101908080519060200190929190505050806000806101000a81548173ffffffffffffffffffffffffffffffffffffffff021916908373ffffffffffffffffffffffffffffffffffffffff16021790555050611473806100916000396000f3fe6080604052600436106100f1576000357c0100000000000000000000000000000000000000000000000000000000900463ffffffff16806308b0980e146100f6578063231fa8f6146101b857806329aa1ef51461021d5780633ec450e11461028257806353221146146102ad5780635880a5301461031257806375b9259e1461033d57806389361baa1461039457806393333b94146104195780639d1a5c821461048a5780639e599328146104ef578063a411be0e1461060b578063a75bc734146106a6578063b820bed5146106d1578063e02ada2f146107b3578063f02805cc1461084e578063f322418d14610950575b600080fd5b34801561010257600080fd5b5061012f6004803603602081101561011957600080fd5b810190808035906020019092919050505061097b565b6040518084815260200180602001838152602001828103825284818151815260200191508051906020019080838360005b8381101561017b578082015181840152602081019050610160565b50505050905090810190601f1680156101a85780820380516001836020036101000a031916815260200191505b5094505050505060405180910390f35b3480156101c457600080fd5b50610207600480360360208110156101db57600080fd5b81019080803573ffffffffffffffffffffffffffffffffffffffff169060200190929190505050610a4c565b6040518082815260200191505060405180910390f35b34801561022957600080fd5b5061026c6004803603602081101561024057600080fd5b81019080803573ffffffffffffffffffffffffffffffffffffffff169060200190929190505050610ad5565b6040518082815260200191505060405180910390f35b34801561028e57600080fd5b50610297610b21565b6040518082815260200191505060405180910390f35b3480156102b957600080fd5b506102fc600480360360208110156102d057600080fd5b81019080803573ffffffffffffffffffffffffffffffffffffffff169060200190929190505050610b6b565b6040518082815260200191505060405180910390f35b34801561031e57600080fd5b50610327610bf4565b6040518082815260200191505060405180910390f35b34801561034957600080fd5b50610352610c52565b604051808273ffffffffffffffffffffffffffffffffffffffff1673ffffffffffffffffffffffffffffffffffffffff16815260200191505060405180910390f35b3480156103a057600080fd5b50610403600480360360408110156103b757600080fd5b81019080803573ffffffffffffffffffffffffffffffffffffffff169060200190929190803573ffffffffffffffffffffffffffffffffffffffff169060200190929190505050610c77565b6040518082815260200191505060405180910390f35b34801561042557600080fd5b506104886004803603604081101561043c57600080fd5b81019080803573ffffffffffffffffffffffffffffffffffffffff169060200190929190803573ffffffffffffffffffffffffffffffffffffffff169060200190929190505050610d01565b005b34801561049657600080fd5b506104d9600480360360208110156104ad57600080fd5b81019080803573ffffffffffffffffffffffffffffffffffffffff169060200190929190505050610e4b565b6040518082815260200191505060405180910390f35b3480156104fb57600080fd5b50610609600480360360a081101561051257600080fd5b81019080803573ffffffffffffffffffffffffffffffffffffffff169060200190929190803573ffffffffffffffffffffffffffffffffffffffff169060200190929190803590602001909291908035906020019064010000000081111561057957600080fd5b82018360208201111561058b57600080fd5b803590602001918460018302840111640100000000831117156105ad57600080fd5b91908080601f016020809104026020016040519081016040528093929190818152602001838380828437600081840152601f19601f82011690508083019250505050505050919291929080359060200190929190505050610e97565b005b34801561061757600080fd5b506106646004803603604081101561062e57600080fd5b81019080803573ffffffffffffffffffffffffffffffffffffffff1690602001909291908035906020019092919050505061101e565b604051808273ffffffffffffffffffffffffffffffffffffffff1673ffffffffffffffffffffffffffffffffffffffff16815260200191505060405180910390f35b3480156106b257600080fd5b506106bb61106b565b6040518082815260200191505060405180910390f35b3480156106dd57600080fd5b5061072a600480360360408110156106f457600080fd5b81019080803573ffffffffffffffffffffffffffffffffffffffff169060200190929190803590602001909291905050506110b5565b6040518084815260200180602001838152602001828103825284818151815260200191508051906020019080838360005b8381101561077657808201518184015260208101905061075b565b50505050905090810190601f1680156107a35780820380516001836020036101000a031916815260200191505b5094505050505060405180910390f35b3480156107bf57600080fd5b5061080c600480360360408110156107d657600080fd5b81019080803573ffffffffffffffffffffffffffffffffffffffff1690602001909291908035906020019092919050505061123b565b604051808273ffffffffffffffffffffffffffffffffffffffff1673ffffffffffffffffffffffffffffffffffffffff16815260200191505060405180910390f35b34801561085a57600080fd5b506108c76004803603606081101561087157600080fd5b81019080803573ffffffffffffffffffffffffffffffffffffffff169060200190929190803573ffffffffffffffffffffffffffffffffffffffff16906020019092919080359060200190929190505050611288565b6040518084815260200180602001838152602001828103825284818151815260200191508051906020019080838360005b838110156109135780820151818401526020810190506108f8565b50505050905090810190601f1680156109405780820380516001836020036101000a031916815260200191505b5094505050505060405180910390f35b34801561095c57600080fd5b50610965611373565b6040518082815260200191505060405180910390f35b60048181548110151561098a57fe5b9060005260206000209060030201600091509050806000015490806001018054600181600116156101000203166002900480601f016020809104026020016040519081016040528092919081815260200182805460018160011615610100020316600290048015610a3c5780601f10610a1157610100808354040283529160200191610a3c565b820191906000526020600020905b815481529060010190602001808311610a1f57829003601f168201915b5050505050908060020154905083565b6000600160008373ffffffffffffffffffffffffffffffffffffffff1673ffffffffffffffffffffffffffffffffffffffff16815260200190815260200160002060003373ffffffffffffffffffffffffffffffffffffffff1673ffffffffffffffffffffffffffffffffffffffff168152602001908152602001600020805490509050919050565b6000600360008373ffffffffffffffffffffffffffffffffffffffff1673ffffffffffffffffffffffffffffffffffffffff168152602001908152602001600020805490509050919050565b6000600260003373ffffffffffffffffffffffffffffffffffffffff1673ffffffffffffffffffffffffffffffffffffffff16815260200190815260200160002080549050905090565b6000600160003373ffffffffffffffffffffffffffffffffffffffff1673ffffffffffffffffffffffffffffffffffffffff16815260200190815260200160002060008373ffffffffffffffffffffffffffffffffffffffff1673ffffffffffffffffffffffffffffffffffffffff168152602001908152602001600020805490509050919050565b600080600260003373ffffffffffffffffffffffffffffffffffffffff1673ffffffffffffffffffffffffffffffffffffffff16815260200190815260200160002080549050141515610c4a5760009050610c4f565b600190505b90565b6000809054906101000a900473ffffffffffffffffffffffffffffffffffffffff1681565b6000600160008473ffffffffffffffffffffffffffffffffffffffff1673ffffffffffffffffffffffffffffffffffffffff16815260200190815260200160002060008373ffffffffffffffffffffffffffffffffffffffff1673ffffffffffffffffffffffffffffffffffffffff16815260200190815260200160002080549050905092915050565b600260008373ffffffffffffffffffffffffffffffffffffffff1673ffffffffffffffffffffffffffffffffffffffff1681526020019081526020016000208190806001815401808255809150509060018203906000526020600020016000909192909190916101000a81548173ffffffffffffffffffffffffffffffffffffffff021916908373ffffffffffffffffffffffffffffffffffffffff16021790555050600360008273ffffffffffffffffffffffffffffffffffffffff1673ffffffffffffffffffffffffffffffffffffffff1681526020019081526020016000208290806001815401808255809150509060018203906000526020600020016000909192909190916101000a81548173ffffffffffffffffffffffffffffffffffffffff021916908373ffffffffffffffffffffffffffffffffffffffff160217905550505050565b6000600260008373ffffffffffffffffffffffffffffffffffffffff1673ffffffffffffffffffffffffffffffffffffffff168152602001908152602001600020805490509050919050565b610e9f611380565b606060405190810160405280858152602001848152602001838152509050600160008773ffffffffffffffffffffffffffffffffffffffff1673ffffffffffffffffffffffffffffffffffffffff16815260200190815260200160002060008673ffffffffffffffffffffffffffffffffffffffff1673ffffffffffffffffffffffffffffffffffffffff1681526020019081526020016000206060604051908101604052808681526020018581526020018481525090806001815401808255809150509060018203906000526020600020906003020160009091929091909150600082015181600001556020820151816001019080519060200190610fa69291906113a2565b5060408201518160020155505050600481908060018154018082558091505090600182039060005260206000209060030201600090919290919091506000820151816000015560208201518160010190805190602001906110089291906113a2565b5060408201518160020155505050505050505050565b60026020528160005260406000208181548110151561103957fe5b906000526020600020016000915091509054906101000a900473ffffffffffffffffffffffffffffffffffffffff1681565b6000600360003373ffffffffffffffffffffffffffffffffffffffff1673ffffffffffffffffffffffffffffffffffffffff16815260200190815260200160002080549050905090565b6000606060006110c3611380565b600160008773ffffffffffffffffffffffffffffffffffffffff1673ffffffffffffffffffffffffffffffffffffffff16815260200190815260200160002060003373ffffffffffffffffffffffffffffffffffffffff1673ffffffffffffffffffffffffffffffffffffffff1681526020019081526020016000208581548110151561114c57fe5b90600052602060002090600302016060604051908101604052908160008201548152602001600182018054600181600116156101000203166002900480601f0160208091040260200160405190810160405280929190818152602001828054600181600116156101000203166002900480156112095780601f106111de57610100808354040283529160200191611209565b820191906000526020600020905b8154815290600101906020018083116111ec57829003601f168201915b505050505081526020016002820154815250509050806000015193508060200151925080604001519150509250925092565b60036020528160005260406000208181548110151561125657fe5b906000526020600020016000915091509054906101000a900473ffffffffffffffffffffffffffffffffffffffff1681565b6001602052826000526040600020602052816000526040600020818154811015156112af57fe5b90600052602060002090600302016000925092505050806000015490806001018054600181600116156101000203166002900480601f0160208091040260200160405190810160405280929190818152602001828054600181600116156101000203166002900480156113635780601f1061133857610100808354040283529160200191611363565b820191906000526020600020905b81548152906001019060200180831161134657829003601f168201915b5050505050908060020154905083565b6000600480549050905090565b6060604051908101604052806000815260200160608152602001600081525090565b828054600181600116156101000203166002900490600052602060002090601f016020900481019282601f106113e357805160ff1916838001178555611411565b82800160010185558215611411579182015b828111156114105782518255916020019190600101906113f5565b5b50905061141e9190611422565b5090565b61144491905b80821115611440576000816000905550600101611428565b5090565b9056fea165627a7a723058200b436cc754f06b0bb5b21710cf4bcfc52a5ce1844b50d37bb5c74b8741fb48820029",
  "source": "pragma solidity >=0.5.0;\n\ncontract Cotizaciones {\n    \n//dirección de la administración que es quien despliega el contrato\n    address public administracion;\n    \n    \n    constructor(address _administracion) public {\n        administracion = address(_administracion);\n    }\n    //asocio a cada empresa un array de usuarios\n    //mapping (address => Usuarios.Usuario[]) public usuariosDeEmpresa;\n \n    \n    //Asocio address de usuario con address de empresa con array de cotizaciones\n    mapping (address => mapping (address => Cotizacion[])) public cotizaciones;\n    \n    mapping (address => address[]) public empleados;\n    mapping (address => address[]) public empresas;\n    \n    \n    \n    Cotizacion[] public todasCotizaciones;\n    \n    \n    \n    //Una cotización contiene:\n    struct Cotizacion {\n        uint cantidad;\n        string mes;\n        uint ano;\n    }\n     \n    \n    function contrata(address empresa, address empleado) public{\n        empleados[empresa].push(empleado);\n        empresas[empleado].push(empresa);\n    }\n    \n    function empleadosLength(address empresa) public view returns(uint){\n       return empleados[empresa].length;\n    }\n    function empresasLength(address empleado) public view returns(uint){\n       return empresas[empleado].length;\n    }\n    \n    function misEmpleadosLength() public view returns(uint){\n        return empleados[msg.sender].length;\n    }\n\n    function misEmpresasLength() public view returns(uint){\n        return empresas[msg.sender].length;\n    }\n\n    function empleado() public view returns(uint){\n        if (empleados[msg.sender].length != 0){\n            return 0;\n        }else{\n            return 1;\n        }\n    }\n\n    function creaCotizacion(address usuario, address empresa, uint _cantidad, string memory _mes, uint _ano) public {\n        /*string memory _CIF = e.empresa[empresa].CIF;\n        bytes memory b = bytes(_CIF);\n        require(b.length != 0, \"La empresa no está registrada en el sistema\");\n        */\n        /*address _dirEmpresa = e.empresa[empresa];\n        bytes memory c = bytes(_dirEmpresa);\n        require(c.length != 0, \"Solo permitido a empresas registradas\");\n        */\n        /*address _dirUsuario = Usuarios.usuarios[usuario];\n        bytes memory b = bytes(_dirUsuario);\n        require(b.length != 0, \"Solo permitido a usuarios registrados\");\n        */\n        /*string memory _DNI = u.usuario[usuario].DNI;\n        bytes memory c = bytes(_DNI);\n        require(c.length != 0, \"El usuario no está registrado en el sistema\");\n        */\n        Cotizacion memory cot = Cotizacion(_cantidad, _mes, _ano);\n        cotizaciones[usuario][empresa].push(Cotizacion(_cantidad, _mes, _ano));\n        todasCotizaciones.push(cot);    \n      \n    }\n    \n    \n    \n   function cotizacionesLength() public view returns(uint) {\n        return todasCotizaciones.length;\n    }\n    \n    function numeroCotizaciones(address _usuario, address _empresa) public view returns (uint){\n        return cotizaciones[_usuario][_empresa].length;\n    }\n    \n    function numeroCotizacionesEmpresa(address _usuario) public view returns (uint){\n        return cotizaciones[_usuario][msg.sender].length;\n    }\n\n    function numeroCotizacionesUsuario(address _empresa) public view returns (uint){\n        return cotizaciones[msg.sender][_empresa].length;\n    }\n    \n    function misCotizaciones(address usuario, uint num) public view returns(uint _cantidad, string memory _mes, uint _ano){\n        Cotizacion memory cot = cotizaciones[usuario][msg.sender][num];\n        _cantidad = cot.cantidad;\n        _mes = cot.mes;\n        _ano = cot.ano;\n    }\n    \n    \n \n //***TENGO QUE CONSEGUIR EN ESE MÉTODO CREAR COTIZACIONES PROBAR QUE UN USUARIO Y UNA EMPRESA EXISTAN EN EL \n //ARRAY DE USUARIOS Y EMPRESAS \n //TENGO QUE CREAR UN MÉTODO QUE ME DEVUELVA LAS COTIZACIONES DE UN USUARIO CON TODAS LAS EMPRESAS Y PARA LAS EMPRESAS LO MISMO\n}\n",
  "sourcePath": "/home/ana/TFG/contracts/Cotizaciones.sol",
  "compiler": {
    "name": "solc",
    "version": "0.5.0+commit.1d4f565a.Emscripten.clang"
  },
  "schemaVersion": "3.0.6",
  "updatedAt": "2020-06-15T17:43:24.314Z",
  "devdoc": {
    "methods": {}
  },
  "userdoc": {
    "methods": {}
  }
}