{
  "contractName": "Empresas",
  "abi": [
    {
      "constant": true,
      "inputs": [
        {
          "name": "",
          "type": "uint256"
        }
      ],
      "name": "empresas",
      "outputs": [
        {
          "name": "",
          "type": "address"
        }
      ],
      "payable": false,
      "stateMutability": "view",
      "type": "function",
      "signature": "0x03e18bde"
    },
    {
      "constant": true,
      "inputs": [
        {
          "name": "",
          "type": "address"
        }
      ],
      "name": "empresa",
      "outputs": [
        {
          "name": "nombre",
          "type": "string"
        },
        {
          "name": "CIF",
          "type": "string"
        },
        {
          "name": "telefono",
          "type": "uint256"
        },
        {
          "name": "email",
          "type": "string"
        }
      ],
      "payable": false,
      "stateMutability": "view",
      "type": "function",
      "signature": "0x1cd79375"
    },
    {
      "constant": true,
      "inputs": [],
      "name": "administracion",
      "outputs": [
        {
          "name": "",
          "type": "address"
        }
      ],
      "payable": false,
      "stateMutability": "view",
      "type": "function",
      "signature": "0x75b9259e"
    },
    {
      "constant": true,
      "inputs": [
        {
          "name": "",
          "type": "uint256"
        }
      ],
      "name": "cifs",
      "outputs": [
        {
          "name": "",
          "type": "string"
        }
      ],
      "payable": false,
      "stateMutability": "view",
      "type": "function",
      "signature": "0xe4500bbe"
    },
    {
      "inputs": [
        {
          "name": "_administracion",
          "type": "address"
        }
      ],
      "payable": false,
      "stateMutability": "nonpayable",
      "type": "constructor",
      "signature": "constructor"
    },
    {
      "constant": true,
      "inputs": [],
      "name": "empresasLength",
      "outputs": [
        {
          "name": "",
          "type": "uint256"
        }
      ],
      "payable": false,
      "stateMutability": "view",
      "type": "function",
      "signature": "0xabe1246a"
    },
    {
      "constant": false,
      "inputs": [
        {
          "name": "_empresa",
          "type": "address"
        },
        {
          "name": "_nombre",
          "type": "string"
        },
        {
          "name": "_CIF",
          "type": "string"
        },
        {
          "name": "_telefono",
          "type": "uint256"
        },
        {
          "name": "_email",
          "type": "string"
        }
      ],
      "name": "creaEmpresa",
      "outputs": [
        {
          "name": "",
          "type": "uint256"
        }
      ],
      "payable": false,
      "stateMutability": "nonpayable",
      "type": "function",
      "signature": "0x743a4d22"
    },
    {
      "constant": true,
      "inputs": [],
      "name": "quienSoy",
      "outputs": [
        {
          "name": "_nombre",
          "type": "string"
        },
        {
          "name": "_CIF",
          "type": "string"
        },
        {
          "name": "_telefono",
          "type": "uint256"
        },
        {
          "name": "_email",
          "type": "string"
        }
      ],
      "payable": false,
      "stateMutability": "view",
      "type": "function",
      "signature": "0x53766883"
    }
  ],
  "bytecode": "0x608060405234801561001057600080fd5b506040516020806115cc8339810180604052602081101561003057600080fd5b8101908080519060200190929190505050806000806101000a81548173ffffffffffffffffffffffffffffffffffffffff021916908373ffffffffffffffffffffffffffffffffffffffff1602179055505061153b806100916000396000f3fe608060405260043610610083576000357c0100000000000000000000000000000000000000000000000000000000900463ffffffff16806303e18bde146100885780631cd793751461010357806353766883146102ac578063743a4d221461041b57806375b9259e1461064f578063abe1246a146106a6578063e4500bbe146106d1575b600080fd5b34801561009457600080fd5b506100c1600480360360208110156100ab57600080fd5b8101908080359060200190929190505050610785565b604051808273ffffffffffffffffffffffffffffffffffffffff1673ffffffffffffffffffffffffffffffffffffffff16815260200191505060405180910390f35b34801561010f57600080fd5b506101526004803603602081101561012657600080fd5b81019080803573ffffffffffffffffffffffffffffffffffffffff1690602001909291905050506107c3565b60405180806020018060200185815260200180602001848103845288818151815260200191508051906020019080838360005b838110156101a0578082015181840152602081019050610185565b50505050905090810190601f1680156101cd5780820380516001836020036101000a031916815260200191505b50848103835287818151815260200191508051906020019080838360005b838110156102065780820151818401526020810190506101eb565b50505050905090810190601f1680156102335780820380516001836020036101000a031916815260200191505b50848103825285818151815260200191508051906020019080838360005b8381101561026c578082015181840152602081019050610251565b50505050905090810190601f1680156102995780820380516001836020036101000a031916815260200191505b5097505050505050505060405180910390f35b3480156102b857600080fd5b506102c16109bb565b60405180806020018060200185815260200180602001848103845288818151815260200191508051906020019080838360005b8381101561030f5780820151818401526020810190506102f4565b50505050905090810190601f16801561033c5780820380516001836020036101000a031916815260200191505b50848103835287818151815260200191508051906020019080838360005b8381101561037557808201518184015260208101905061035a565b50505050905090810190601f1680156103a25780820380516001836020036101000a031916815260200191505b50848103825285818151815260200191508051906020019080838360005b838110156103db5780820151818401526020810190506103c0565b50505050905090810190601f1680156104085780820380516001836020036101000a031916815260200191505b5097505050505050505060405180910390f35b34801561042757600080fd5b50610639600480360360a081101561043e57600080fd5b81019080803573ffffffffffffffffffffffffffffffffffffffff1690602001909291908035906020019064010000000081111561047b57600080fd5b82018360208201111561048d57600080fd5b803590602001918460018302840111640100000000831117156104af57600080fd5b91908080601f016020809104026020016040519081016040528093929190818152602001838380828437600081840152601f19601f8201169050808301925050505050505091929192908035906020019064010000000081111561051257600080fd5b82018360208201111561052457600080fd5b8035906020019184600183028401116401000000008311171561054657600080fd5b91908080601f016020809104026020016040519081016040528093929190818152602001838380828437600081840152601f19601f82011690508083019250505050505050919291929080359060200190929190803590602001906401000000008111156105b357600080fd5b8201836020820111156105c557600080fd5b803590602001918460018302840111640100000000831117156105e757600080fd5b91908080601f016020809104026020016040519081016040528093929190818152602001838380828437600081840152601f19601f820116905080830192505050505050509192919290505050610daf565b6040518082815260200191505060405180910390f35b34801561065b57600080fd5b506106646112d4565b604051808273ffffffffffffffffffffffffffffffffffffffff1673ffffffffffffffffffffffffffffffffffffffff16815260200191505060405180910390f35b3480156106b257600080fd5b506106bb6112f9565b6040518082815260200191505060405180910390f35b3480156106dd57600080fd5b5061070a600480360360208110156106f457600080fd5b8101908080359060200190929190505050611306565b6040518080602001828103825283818151815260200191508051906020019080838360005b8381101561074a57808201518184015260208101905061072f565b50505050905090810190601f1680156107775780820380516001836020036101000a031916815260200191505b509250505060405180910390f35b60038181548110151561079457fe5b906000526020600020016000915054906101000a900473ffffffffffffffffffffffffffffffffffffffff1681565b6001602052806000526040600020600091509050806000018054600181600116156101000203166002900480601f01602080910402602001604051908101604052809291908181526020018280546001816001161561010002031660029004801561086f5780601f106108445761010080835404028352916020019161086f565b820191906000526020600020905b81548152906001019060200180831161085257829003601f168201915b505050505090806001018054600181600116156101000203166002900480601f01602080910402602001604051908101604052809291908181526020018280546001816001161561010002031660029004801561090d5780601f106108e25761010080835404028352916020019161090d565b820191906000526020600020905b8154815290600101906020018083116108f057829003601f168201915b505050505090806002015490806003018054600181600116156101000203166002900480601f0160208091040260200160405190810160405280929190818152602001828054600181600116156101000203166002900480156109b15780601f10610986576101008083540402835291602001916109b1565b820191906000526020600020905b81548152906001019060200180831161099457829003601f168201915b5050505050905084565b6060806000606080600160003373ffffffffffffffffffffffffffffffffffffffff1673ffffffffffffffffffffffffffffffffffffffff1681526020019081526020016000206001018054600181600116156101000203166002900480601f016020809104026020016040519081016040528092919081815260200182805460018160011615610100020316600290048015610a995780601f10610a6e57610100808354040283529160200191610a99565b820191906000526020600020905b815481529060010190602001808311610a7c57829003601f168201915b5050505050905060608190506000815114151515610b45576040517f08c379a000000000000000000000000000000000000000000000000000000000815260040180806020018281038252602c8152602001807f4c6120656d7072657361206e6f20657374c3a12072656769737472616461206581526020017f6e20656c2073697374656d61000000000000000000000000000000000000000081525060400191505060405180910390fd5b610b4d6113c1565b600160003373ffffffffffffffffffffffffffffffffffffffff1673ffffffffffffffffffffffffffffffffffffffff16815260200190815260200160002060806040519081016040529081600082018054600181600116156101000203166002900480601f016020809104026020016040519081016040528092919081815260200182805460018160011615610100020316600290048015610c315780601f10610c0657610100808354040283529160200191610c31565b820191906000526020600020905b815481529060010190602001808311610c1457829003601f168201915b50505050508152602001600182018054600181600116156101000203166002900480601f016020809104026020016040519081016040528092919081815260200182805460018160011615610100020316600290048015610cd35780601f10610ca857610100808354040283529160200191610cd3565b820191906000526020600020905b815481529060010190602001808311610cb657829003601f168201915b5050505050815260200160028201548152602001600382018054600181600116156101000203166002900480601f016020809104026020016040519081016040528092919081815260200182805460018160011615610100020316600290048015610d7f5780601f10610d5457610100808354040283529160200191610d7f565b820191906000526020600020905b815481529060010190602001808311610d6257829003601f168201915b50505050508152505090508060000151965080604001519450806020015195508060600151935050505090919293565b60008060009054906101000a900473ffffffffffffffffffffffffffffffffffffffff1673ffffffffffffffffffffffffffffffffffffffff163373ffffffffffffffffffffffffffffffffffffffff16141515610e9b576040517f08c379a000000000000000000000000000000000000000000000000000000000815260040180806020018281038252603c8152602001807f457374612061636369c3b36e2073c3b36c6f207075656465207365722072656181526020017f6c697a61646120706f72206c612061646d696e697374726163696f6e0000000081525060400191505060405180910390fd5b6060600160008873ffffffffffffffffffffffffffffffffffffffff1673ffffffffffffffffffffffffffffffffffffffff1681526020019081526020016000206001018054600181600116156101000203166002900480601f016020809104026020016040519081016040528092919081815260200182805460018160011615610100020316600290048015610f735780601f10610f4857610100808354040283529160200191610f73565b820191906000526020600020905b815481529060010190602001808311610f5657829003601f168201915b5050505050905060608190506000815114151561101e576040517f08c379a00000000000000000000000000000000000000000000000000000000081526004018080602001828103825260288152602001807f536f6c6f207065726d697469646f206120656d707265736173206e6f2072656781526020017f697374726164617300000000000000000000000000000000000000000000000081525060400191505060405180910390fd5b6060869050600081511415151561109d576040517f08c379a00000000000000000000000000000000000000000000000000000000081526004018080602001828103825260198152602001807f456c20434946206e6f2070756564652073657220766163696f0000000000000081525060200191505060405180910390fd5b6110a56113c1565b6080604051908101604052808a815260200189815260200188815260200187815250905080600160008c73ffffffffffffffffffffffffffffffffffffffff1673ffffffffffffffffffffffffffffffffffffffff16815260200190815260200160002060008201518160000190805190602001906111259291906113ea565b5060208201518160010190805190602001906111429291906113ea565b506040820151816002015560608201518160030190805190602001906111699291906113ea565b50905050896002896040518082805190602001908083835b6020831015156111a65780518252602082019150602081019050602083039250611181565b6001836020036101000a038019825116818451168082178552505050505050905001915050908152602001604051809103902060006101000a81548173ffffffffffffffffffffffffffffffffffffffff021916908373ffffffffffffffffffffffffffffffffffffffff16021790555060038a90806001815401808255809150509060018203906000526020600020016000909192909190916101000a81548173ffffffffffffffffffffffffffffffffffffffff021916908373ffffffffffffffffffffffffffffffffffffffff1602179055505060048890806001815401808255809150509060018203906000526020600020016000909192909190915090805190602001906112ba92919061146a565b505060016003805490500394505050505095945050505050565b6000809054906101000a900473ffffffffffffffffffffffffffffffffffffffff1681565b6000600380549050905090565b60048181548110151561131557fe5b906000526020600020016000915090508054600181600116156101000203166002900480601f0160208091040260200160405190810160405280929190818152602001828054600181600116156101000203166002900480156113b95780601f1061138e576101008083540402835291602001916113b9565b820191906000526020600020905b81548152906001019060200180831161139c57829003601f168201915b505050505081565b608060405190810160405280606081526020016060815260200160008152602001606081525090565b828054600181600116156101000203166002900490600052602060002090601f016020900481019282601f1061142b57805160ff1916838001178555611459565b82800160010185558215611459579182015b8281111561145857825182559160200191906001019061143d565b5b50905061146691906114ea565b5090565b828054600181600116156101000203166002900490600052602060002090601f016020900481019282601f106114ab57805160ff19168380011785556114d9565b828001600101855582156114d9579182015b828111156114d85782518255916020019190600101906114bd565b5b5090506114e691906114ea565b5090565b61150c91905b808211156115085760008160009055506001016114f0565b5090565b9056fea165627a7a72305820c55ec630bcd4108e2f92ab804c2d24b42252ede705349d397a863d1253c33fd30029",
  "source": "pragma solidity >=0.5.0;\n\ncontract Empresas {\n    \n    //dirección de la administración que es quien despliega el contrato\n    address public administracion;\n    \n    constructor(address _administracion) public {\n        administracion = address(_administracion);\n    }\n    \n    //Una empresa contiene:\n    struct Empresa {\n        string nombre;\n        string CIF;\n        uint telefono;\n        string email;\n    }\n    \n    //asocio a cada empresa una dirección\n    mapping (address => Empresa) public empresa;\n    //Hacer un mapping de CIFs\n    mapping (string => address) cif;\n\n\n    //array de empresas, devuelve la empresa en esa posición\n    address[] public empresas;\n    string[] public cifs;\n    \n    //devuelve cantidad de empresas en el array\n      function empresasLength() public view returns(uint) {\n        return empresas.length;\n    }\n    \n    //empresa nueva\n      function creaEmpresa(address _empresa, string memory _nombre, string memory _CIF, uint _telefono, string memory _email) soloAdministracion public returns (uint) {\n        string memory _cifEmpresa = empresa[_empresa].CIF;\n        bytes memory c = bytes(_cifEmpresa);\n        require(c.length == 0, \"Solo permitido a empresas no registradas\");\n        bytes memory b = bytes(_CIF);\n        require(b.length != 0, \"El CIF no puede ser vacio\");\n        Empresa memory company = Empresa(_nombre, _CIF, _telefono, _email);\n        empresa[_empresa] = company;\n        cif[_CIF] = _empresa;\n        empresas.push(_empresa);\n        cifs.push(_CIF);\n        return empresas.length - 1;\n    }\n    \n    \n    //me muestra la empresa asociada a la dirección actual\n    function quienSoy() soloRegistrados public view returns (string memory _nombre, string memory _CIF, uint _telefono, string memory _email) {\n        Empresa memory company = empresa[msg.sender];\n        _nombre = company.nombre;\n        _telefono = company.telefono;\n        _CIF = company.CIF;\n        _email = company.email;\n    }\n    \n\n    \n       modifier soloRegistrados() {\n        \n        string memory _CIF = empresa[msg.sender].CIF;\n        \n        bytes memory b = bytes(_CIF);\n        \n        require(b.length != 0, \"La empresa no está registrada en el sistema\");\n        _;\n        \n    }\n    \n          modifier soloAdministracion() {\n        \n        require(msg.sender == administracion, \"Esta acción sólo puede ser realizada por la administracion\");\n        _;\n    }\n    \n        modifier noRegistrados() {\n        \n        string memory _CIF = empresa[msg.sender].CIF;\n        \n        bytes memory b = bytes(_CIF);\n        \n        require(b.length == 0, \"Solo permitido a usuarios no registrados\");\n        _;\n        \n    }\n}",
  "sourcePath": "/home/ana/TFG/contracts/Empresas.sol",
  "compiler": {
    "name": "solc",
    "version": "0.5.0+commit.1d4f565a.Emscripten.clang"
  },
  "schemaVersion": "3.0.6",
  "updatedAt": "2020-06-15T17:43:21.328Z",
  "devdoc": {
    "methods": {}
  },
  "userdoc": {
    "methods": {}
  }
}