{
  "contractName": "Usuarios",
  "abi": [
    {
      "constant": true,
      "inputs": [
        {
          "name": "",
          "type": "uint256"
        }
      ],
      "name": "usuarios",
      "outputs": [
        {
          "name": "",
          "type": "address"
        }
      ],
      "payable": false,
      "stateMutability": "view",
      "type": "function",
      "signature": "0x198713cf"
    },
    {
      "constant": true,
      "inputs": [],
      "name": "administracion",
      "outputs": [
        {
          "name": "",
          "type": "address"
        }
      ],
      "payable": false,
      "stateMutability": "view",
      "type": "function",
      "signature": "0x75b9259e"
    },
    {
      "constant": true,
      "inputs": [
        {
          "name": "",
          "type": "address"
        }
      ],
      "name": "usuario",
      "outputs": [
        {
          "name": "nombre",
          "type": "string"
        },
        {
          "name": "apellidos",
          "type": "string"
        },
        {
          "name": "telefono",
          "type": "uint256"
        },
        {
          "name": "DNI",
          "type": "string"
        },
        {
          "name": "email",
          "type": "string"
        }
      ],
      "payable": false,
      "stateMutability": "view",
      "type": "function",
      "signature": "0x8578f9fd"
    },
    {
      "constant": true,
      "inputs": [
        {
          "name": "",
          "type": "uint256"
        }
      ],
      "name": "dnis",
      "outputs": [
        {
          "name": "",
          "type": "string"
        }
      ],
      "payable": false,
      "stateMutability": "view",
      "type": "function",
      "signature": "0x8fe1db9a"
    },
    {
      "inputs": [
        {
          "name": "_administracion",
          "type": "address"
        }
      ],
      "payable": false,
      "stateMutability": "nonpayable",
      "type": "constructor",
      "signature": "constructor"
    },
    {
      "constant": true,
      "inputs": [],
      "name": "usuariosLength",
      "outputs": [
        {
          "name": "",
          "type": "uint256"
        }
      ],
      "payable": false,
      "stateMutability": "view",
      "type": "function",
      "signature": "0x16828726"
    },
    {
      "constant": false,
      "inputs": [
        {
          "name": "_usuario",
          "type": "address"
        },
        {
          "name": "_nombre",
          "type": "string"
        },
        {
          "name": "_apellidos",
          "type": "string"
        },
        {
          "name": "_telefono",
          "type": "uint256"
        },
        {
          "name": "_DNI",
          "type": "string"
        },
        {
          "name": "_email",
          "type": "string"
        }
      ],
      "name": "creaUsuario",
      "outputs": [
        {
          "name": "",
          "type": "uint256"
        }
      ],
      "payable": false,
      "stateMutability": "nonpayable",
      "type": "function",
      "signature": "0x7eb86bec"
    },
    {
      "constant": true,
      "inputs": [],
      "name": "quienSoy",
      "outputs": [
        {
          "name": "_nombre",
          "type": "string"
        },
        {
          "name": "_apellidos",
          "type": "string"
        },
        {
          "name": "_telefono",
          "type": "uint256"
        },
        {
          "name": "_DNI",
          "type": "string"
        },
        {
          "name": "_email",
          "type": "string"
        }
      ],
      "payable": false,
      "stateMutability": "view",
      "type": "function",
      "signature": "0x53766883"
    }
  ],
  "bytecode": "0x608060405234801561001057600080fd5b506040516020806118b08339810180604052602081101561003057600080fd5b8101908080519060200190929190505050806000806101000a81548173ffffffffffffffffffffffffffffffffffffffff021916908373ffffffffffffffffffffffffffffffffffffffff1602179055505061181f806100916000396000f3fe608060405260043610610083576000357c0100000000000000000000000000000000000000000000000000000000900463ffffffff1680631682872614610088578063198713cf146100b3578063537668831461012e57806375b9259e146103095780637eb86bec146103605780638578f9fd1461062b5780638fe1db9a14610840575b600080fd5b34801561009457600080fd5b5061009d6108f4565b6040518082815260200191505060405180910390f35b3480156100bf57600080fd5b506100ec600480360360208110156100d657600080fd5b8101908080359060200190929190505050610901565b604051808273ffffffffffffffffffffffffffffffffffffffff1673ffffffffffffffffffffffffffffffffffffffff16815260200191505060405180910390f35b34801561013a57600080fd5b5061014361093f565b604051808060200180602001868152602001806020018060200185810385528a818151815260200191508051906020019080838360005b8381101561019557808201518184015260208101905061017a565b50505050905090810190601f1680156101c25780820380516001836020036101000a031916815260200191505b50858103845289818151815260200191508051906020019080838360005b838110156101fb5780820151818401526020810190506101e0565b50505050905090810190601f1680156102285780820380516001836020036101000a031916815260200191505b50858103835287818151815260200191508051906020019080838360005b83811015610261578082015181840152602081019050610246565b50505050905090810190601f16801561028e5780820380516001836020036101000a031916815260200191505b50858103825286818151815260200191508051906020019080838360005b838110156102c75780820151818401526020810190506102ac565b50505050905090810190601f1680156102f45780820380516001836020036101000a031916815260200191505b50995050505050505050505060405180910390f35b34801561031557600080fd5b5061031e610ddf565b604051808273ffffffffffffffffffffffffffffffffffffffff1673ffffffffffffffffffffffffffffffffffffffff16815260200191505060405180910390f35b34801561036c57600080fd5b50610615600480360360c081101561038357600080fd5b81019080803573ffffffffffffffffffffffffffffffffffffffff169060200190929190803590602001906401000000008111156103c057600080fd5b8201836020820111156103d257600080fd5b803590602001918460018302840111640100000000831117156103f457600080fd5b91908080601f016020809104026020016040519081016040528093929190818152602001838380828437600081840152601f19601f8201169050808301925050505050505091929192908035906020019064010000000081111561045757600080fd5b82018360208201111561046957600080fd5b8035906020019184600183028401116401000000008311171561048b57600080fd5b91908080601f016020809104026020016040519081016040528093929190818152602001838380828437600081840152601f19601f82011690508083019250505050505050919291929080359060200190929190803590602001906401000000008111156104f857600080fd5b82018360208201111561050a57600080fd5b8035906020019184600183028401116401000000008311171561052c57600080fd5b91908080601f016020809104026020016040519081016040528093929190818152602001838380828437600081840152601f19601f8201169050808301925050505050505091929192908035906020019064010000000081111561058f57600080fd5b8201836020820111156105a157600080fd5b803590602001918460018302840111640100000000831117156105c357600080fd5b91908080601f016020809104026020016040519081016040528093929190818152602001838380828437600081840152601f19601f820116905080830192505050505050509192919290505050610e04565b6040518082815260200191505060405180910390f35b34801561063757600080fd5b5061067a6004803603602081101561064e57600080fd5b81019080803573ffffffffffffffffffffffffffffffffffffffff16906020019092919050505061134d565b604051808060200180602001868152602001806020018060200185810385528a818151815260200191508051906020019080838360005b838110156106cc5780820151818401526020810190506106b1565b50505050905090810190601f1680156106f95780820380516001836020036101000a031916815260200191505b50858103845289818151815260200191508051906020019080838360005b83811015610732578082015181840152602081019050610717565b50505050905090810190601f16801561075f5780820380516001836020036101000a031916815260200191505b50858103835287818151815260200191508051906020019080838360005b8381101561079857808201518184015260208101905061077d565b50505050905090810190601f1680156107c55780820380516001836020036101000a031916815260200191505b50858103825286818151815260200191508051906020019080838360005b838110156107fe5780820151818401526020810190506107e3565b50505050905090810190601f16801561082b5780820380516001836020036101000a031916815260200191505b50995050505050505050505060405180910390f35b34801561084c57600080fd5b506108796004803603602081101561086357600080fd5b81019080803590602001909291905050506115e3565b6040518080602001828103825283818151815260200191508051906020019080838360005b838110156108b957808201518184015260208101905061089e565b50505050905090810190601f1680156108e65780820380516001836020036101000a031916815260200191505b509250505060405180910390f35b6000600380549050905090565b60038181548110151561091057fe5b906000526020600020016000915054906101000a900473ffffffffffffffffffffffffffffffffffffffff1681565b60608060006060806060600160003373ffffffffffffffffffffffffffffffffffffffff1673ffffffffffffffffffffffffffffffffffffffff1681526020019081526020016000206003018054600181600116156101000203166002900480601f016020809104026020016040519081016040528092919081815260200182805460018160011615610100020316600290048015610a1f5780601f106109f457610100808354040283529160200191610a1f565b820191906000526020600020905b815481529060010190602001808311610a0257829003601f168201915b5050505050905060608190506000815114151515610acb576040517f08c379a00000000000000000000000000000000000000000000000000000000081526004018080602001828103825260278152602001807f5573746564206e6f20657374c3a1207265676973747261646f20656e20656c2081526020017f73697374656d610000000000000000000000000000000000000000000000000081525060400191505060405180910390fd5b610ad361169e565b600160003373ffffffffffffffffffffffffffffffffffffffff1673ffffffffffffffffffffffffffffffffffffffff16815260200190815260200160002060a06040519081016040529081600082018054600181600116156101000203166002900480601f016020809104026020016040519081016040528092919081815260200182805460018160011615610100020316600290048015610bb75780601f10610b8c57610100808354040283529160200191610bb7565b820191906000526020600020905b815481529060010190602001808311610b9a57829003601f168201915b50505050508152602001600182018054600181600116156101000203166002900480601f016020809104026020016040519081016040528092919081815260200182805460018160011615610100020316600290048015610c595780601f10610c2e57610100808354040283529160200191610c59565b820191906000526020600020905b815481529060010190602001808311610c3c57829003601f168201915b5050505050815260200160028201548152602001600382018054600181600116156101000203166002900480601f016020809104026020016040519081016040528092919081815260200182805460018160011615610100020316600290048015610d055780601f10610cda57610100808354040283529160200191610d05565b820191906000526020600020905b815481529060010190602001808311610ce857829003601f168201915b50505050508152602001600482018054600181600116156101000203166002900480601f016020809104026020016040519081016040528092919081815260200182805460018160011615610100020316600290048015610da75780601f10610d7c57610100808354040283529160200191610da7565b820191906000526020600020905b815481529060010190602001808311610d8a57829003601f168201915b505050505081525050905080600001519750806020015196508060400151955080606001519450806080015193505050509091929394565b6000809054906101000a900473ffffffffffffffffffffffffffffffffffffffff1681565b60008060009054906101000a900473ffffffffffffffffffffffffffffffffffffffff1673ffffffffffffffffffffffffffffffffffffffff163373ffffffffffffffffffffffffffffffffffffffff16141515610ef0576040517f08c379a000000000000000000000000000000000000000000000000000000000815260040180806020018281038252603c8152602001807f457374612061636369c3b36e2073c3b36c6f207075656465207365722072656181526020017f6c697a61646120706f72206c612061646d696e697374726163696f6e0000000081525060400191505060405180910390fd5b6060600160008973ffffffffffffffffffffffffffffffffffffffff1673ffffffffffffffffffffffffffffffffffffffff1681526020019081526020016000206003018054600181600116156101000203166002900480601f016020809104026020016040519081016040528092919081815260200182805460018160011615610100020316600290048015610fc85780601f10610f9d57610100808354040283529160200191610fc8565b820191906000526020600020905b815481529060010190602001808311610fab57829003601f168201915b50505050509050606081905060008151141515611073576040517f08c379a00000000000000000000000000000000000000000000000000000000081526004018080602001828103825260288152602001807f536f6c6f207065726d697469646f2061207573756172696f73206e6f2072656781526020017f6973747261646f7300000000000000000000000000000000000000000000000081525060400191505060405180910390fd5b606085905060008151141515156110f2576040517f08c379a00000000000000000000000000000000000000000000000000000000081526004018080602001828103825260198152602001807f456c20444e49206e6f2070756564652073657220766163696f0000000000000081525060200191505060405180910390fd5b6110fa61169e565b60a0604051908101604052808b81526020018a815260200189815260200188815260200187815250905080600160008d73ffffffffffffffffffffffffffffffffffffffff1673ffffffffffffffffffffffffffffffffffffffff16815260200190815260200160002060008201518160000190805190602001906111809291906116ce565b50602082015181600101908051906020019061119d9291906116ce565b506040820151816002015560608201518160030190805190602001906111c49291906116ce565b5060808201518160040190805190602001906111e19291906116ce565b509050508a6002886040518082805190602001908083835b60208310151561121e57805182526020820191506020810190506020830392506111f9565b6001836020036101000a038019825116818451168082178552505050505050905001915050908152602001604051809103902060006101000a81548173ffffffffffffffffffffffffffffffffffffffff021916908373ffffffffffffffffffffffffffffffffffffffff16021790555060038b90806001815401808255809150509060018203906000526020600020016000909192909190916101000a81548173ffffffffffffffffffffffffffffffffffffffff021916908373ffffffffffffffffffffffffffffffffffffffff16021790555050600487908060018154018082558091505090600182039060005260206000200160009091929091909150908051906020019061133292919061174e565b50506001600380549050039450505050509695505050505050565b6001602052806000526040600020600091509050806000018054600181600116156101000203166002900480601f0160208091040260200160405190810160405280929190818152602001828054600181600116156101000203166002900480156113f95780601f106113ce576101008083540402835291602001916113f9565b820191906000526020600020905b8154815290600101906020018083116113dc57829003601f168201915b505050505090806001018054600181600116156101000203166002900480601f0160208091040260200160405190810160405280929190818152602001828054600181600116156101000203166002900480156114975780601f1061146c57610100808354040283529160200191611497565b820191906000526020600020905b81548152906001019060200180831161147a57829003601f168201915b505050505090806002015490806003018054600181600116156101000203166002900480601f01602080910402602001604051908101604052809291908181526020018280546001816001161561010002031660029004801561153b5780601f106115105761010080835404028352916020019161153b565b820191906000526020600020905b81548152906001019060200180831161151e57829003601f168201915b505050505090806004018054600181600116156101000203166002900480601f0160208091040260200160405190810160405280929190818152602001828054600181600116156101000203166002900480156115d95780601f106115ae576101008083540402835291602001916115d9565b820191906000526020600020905b8154815290600101906020018083116115bc57829003601f168201915b5050505050905085565b6004818154811015156115f257fe5b906000526020600020016000915090508054600181600116156101000203166002900480601f0160208091040260200160405190810160405280929190818152602001828054600181600116156101000203166002900480156116965780601f1061166b57610100808354040283529160200191611696565b820191906000526020600020905b81548152906001019060200180831161167957829003601f168201915b505050505081565b60a06040519081016040528060608152602001606081526020016000815260200160608152602001606081525090565b828054600181600116156101000203166002900490600052602060002090601f016020900481019282601f1061170f57805160ff191683800117855561173d565b8280016001018555821561173d579182015b8281111561173c578251825591602001919060010190611721565b5b50905061174a91906117ce565b5090565b828054600181600116156101000203166002900490600052602060002090601f016020900481019282601f1061178f57805160ff19168380011785556117bd565b828001600101855582156117bd579182015b828111156117bc5782518255916020019190600101906117a1565b5b5090506117ca91906117ce565b5090565b6117f091905b808211156117ec5760008160009055506001016117d4565b5090565b9056fea165627a7a723058200710c42b0bdec06425beed987a3fbaa93e755d8eebc1b14671954d82213767eb0029",
  "source": "pragma solidity >=0.5.0;\n\ncontract Usuarios {\n    \n    //dirección de la administración que es quien despliega el contrato\n    address public administracion;\n    \n    constructor(address _administracion) public {\n        administracion = address(_administracion);\n    }\n    //Un usuario contiene:\n    struct Usuario {\n        string nombre;\n        string apellidos;\n        uint telefono;\n        string DNI;\n        string email;\n    }\n    \n    //asocio a cada usuario una dirección\n    //No puedo ponerlo public porque da error al compilar\n    mapping (address => Usuario) public usuario;\n    //Hacer un mapping de DNIs (string => address)\n    mapping (string => address) dni;\n\n    //array de usuarios, devuelve el usuario en esa posición\n    address[] public usuarios;\n    string[] public dnis;\n    \n    //devuelve cantidad de usuarios en el array\n      function usuariosLength() public view returns(uint) {\n        return usuarios.length;\n    }\n    \n    //usuario nuevo, sólo lo puede crear la administracion, compruebo que no existe ningún usuario para esa dirección y que el DNI no está\n    //vacío y lo creo, lo asocio a esa dirección y ese DNI (mapping)\n      function creaUsuario (address _usuario, string memory _nombre, string memory _apellidos, uint _telefono, string memory _DNI, string memory _email) soloAdministracion public returns (uint) {\n        string memory _dniUser = usuario[_usuario].DNI;\n        bytes memory c = bytes(_dniUser);\n        require(c.length == 0, \"Solo permitido a usuarios no registrados\");\n        bytes memory b = bytes(_DNI);\n        require(b.length != 0, \"El DNI no puede ser vacio\");\n        Usuario memory user = Usuario(_nombre, _apellidos, _telefono, _DNI, _email);\n        usuario[_usuario] = user;\n        dni[_DNI] = _usuario;\n        usuarios.push(_usuario);\n        dnis.push(_DNI);\n        return usuarios.length - 1;\n    }\n    \n    //me muestra el usuario asociado a la dirección actual\n    function quienSoy() soloRegistrados public view returns (string memory _nombre, string memory _apellidos, uint _telefono, string memory _DNI, string memory _email) {\n        Usuario memory user = usuario[msg.sender];\n        _nombre = user.nombre;\n        _apellidos = user.apellidos;\n        _telefono = user.telefono;\n        _DNI = user.DNI;\n        _email = user.email;\n    }\n    \n    modifier soloRegistrados() {\n        \n        string memory _DNI = usuario[msg.sender].DNI;\n        \n        bytes memory b = bytes(_DNI);\n        \n        require(b.length != 0, \"Usted no está registrado en el sistema\");\n        _;\n        \n    }\n    \n    modifier noRegistrados() {\n        \n        string memory _DNI = usuario[msg.sender].DNI;\n        \n        bytes memory b = bytes(_DNI);\n        \n        require(b.length == 0, \"Solo permitido a usuarios no registrados\");\n        _;\n        \n    }\n          \n       modifier soloAdministracion() {\n        \n        require(msg.sender == administracion, \"Esta acción sólo puede ser realizada por la administracion\");\n        _;\n    }\n}\n",
  "sourcePath": "/home/ana/TFG/contracts/Usuarios.sol",
  "compiler": {
    "name": "solc",
    "version": "0.5.0+commit.1d4f565a.Emscripten.clang"
  },
  "schemaVersion": "3.0.6",
  "updatedAt": "2020-06-15T17:43:17.677Z",
  "devdoc": {
    "methods": {}
  },
  "userdoc": {
    "methods": {}
  }
}